:020000040000FA
:040000008131CC2955
:040004000034003490
:080008002000A0000308A10084
:100010000A08A2002000911A11288131152180318F
:10002000152881319F21803115282100911620004B
:1000300022088A0021088300A00E200E09008207F2
:100040003034313432343334343435343634373474
:0400500038343934D3
:0C00540020000D11003420000D150034B8
:1000600020008D140000000000008D1000342000DE
:100070008F002A2030200230833140238031003429
:1000800020008F002D20302002308331402380312A
:1000900000344F3020002E0703188A0A82004534AE
:1000A0006E347334753472346534203463346F3491
:1000B0006E34743472346F346C342D3462346F3473
:1000C000783420340034693020002F0703188A0A5E
:1000D00082007434753472346E3465346434203480
:1000E0006F346E342034663469347234733474344B
:1000F00020342134213400342000AE01AF013230ED
:1001000083314023803138303720063037200F309C
:10011000372001303720EC20943037204920003838
:10012000031998284020013040232000AE0A8E2871
:10013000D4303720632000380319A4284020013030
:1001400040232000AF0A9A280034873037206430DB
:1001500020003102031CAE28313040202000B201C3
:10016000B20A0A30B1020318B028B2030A30B1074C
:10017000320880311F20803140202000B201B20AB5
:100180000130B1020318BF28B203320880311F20AA
:100190008031402000340130372054304020653019
:1001A00040206D304020703040203A30402089306F
:1001B0003720DF30402046304020C03037205030DC
:1001C0004020723040206530402073304020733032
:1001D00040203A3040200034493040204E3040200A
:1001E00049304020543040204930402041304020A8
:1001F0004C304020493040205A3040204930402087
:100200004E304020473040201030402045304020C4
:100210005330402043304020733040202E30402067
:0A0220002E3040202E304020003424
:06022A0020000D080B107E
:100230002700960107302000AD005F30A600A70020
:10024000A80083311F238131053021009D008331B7
:100250004A23813183314A23813121009D149D1825
:100260002F2921001C08F400013021009D004A23A1
:10027000813183314A23813121009D149D183E290B
:1002800021001C08F3008231EA2281312000291864
:100290008D298231CA2281318231BF228131770892
:1002A0007602031C54298229F41F6C290430200093
:1002B000AD007408F2008231D5228131200025087A
:1002C000A6008030F2007708F2028231D522813117
:1002D00020002508A7008D2905302000AD007408F6
:1002E000F2008231D522813120002508A7007F301D
:1002F000F2007708F2078231D522813120002508EB
:10030000A6008D2906302000AD007308F20082316E
:10031000D522813120002508A80083311F23813197
:1003200020000D18242907302000AD005F30200088
:10033000A600A700A80083311F2381310034833138
:10034000112381310330200030060319C329200016
:10035000013024060319B7290230200024060319AE
:10036000BB290330200024060319BF290034833140
:1003700053238131003483315923813100340330D8
:100380002000B000003420002408B1008031A520F6
:0803900081312000B0010034AE
:08039800823163228131200053
:1003A0008E1CD0298B1583311F2381310130210010
:1003B0009D0083314A23813183314A2381312100D9
:1003C0009D149D18E12921001C08F300053021002F
:1003D0009D0083314A23813183314A2381312100B9
:1003E0009D149D18F12921001C08F4008231EA2295
:1003F000813120002918D3298231BF2281318231F5
:10040000CA22823177087602031C352A072AF31F95
:100410001F2A00302000AD007308F2008231D5227F
:10042000823120002508A6008030F2007608F20212
:100430008231D522823120002508A700D32901303E
:100440002000AD007308F2008231D52282312000F5
:100450002508A7007F30F2007608F2078231D52206
:10046000823120002508A600D329F41F4D2A02302E
:100470002000AD007408F2008231D52282312000C4
:100480002508A6008030F2007708F2028231D522DA
:10049000823120002508A700D32903302000AD00B9
:1004A0007408F2008231D522823120002508A7008D
:1004B0007F30F2007708F2078231D52282312000A6
:0604C0002508A600D32967
:0A04C600210003308C00F9308D0096
:1004D000F8308E0000308F000030900020008F0137
:1004E0008E01C43021009500003021009900C030F9
:1004F0008B00013027009400033023008C00103063
:1005000021009E0023008D018F01900180317C200D
:100510008231063020009C008C3020009B0025009A
:10052000FC300C302500930025009101AB013A30DE
:1005300023009B00033023009C00230008309F0011
:10054000203023009E00903023009D001430833122
:10055000402382312000A301A90120302100910015
:10056000FA308331402382315F302000A600A7009B
:0E057000A800FA302000AB00A401A301003463
:02057E00F31F69
:10058000C52A7F307302F60000347F30F60073080E
:10059000F6020034F41FD02A7F307402F7000034D2
:1005A0007F30F7007408F7020034F1012000AC013D
:1005B000A5014630A500710820002B02031CE92A82
:1005C0000530F10771087202031CE92A2000A50A10
:1005D000DB2A00342000A901A03073020318003484
:1005E0005A307302031C0034A03074020318003424
:1005F0005A307402031C00342000291407302000F4
:0E060000AD005F302000A600A700A800003467
:02060E002000CA
:10061000230823009A00000000002000111E0E2B6A
:1006200000342000911E122B23001D1223001908F4
:100630002000A4002000911223001D160034200089
:100640002D08A30007230A30833140238331200083
:100650002608A30007230A3083314023833120007A
:100660002708A30007230A30833140238331200069
:100670002808A3000723323083314023833100341C
:10068000F0002000950115087D3A031D432BF00B67
:10069000412B0034AA0100002000AA0A10302A06CB
:0606A000031D4B2B00348A
:0A06A60020000E1419302500910009
:0E06B000003420008E148031CB2083310034C2
:020000040001F9
:02000E00C20925
:00000001FF
